{
  "contractName": "GenContract",
  "abi": [
    {
      "inputs": [],
      "stateMutability": "nonpayable",
      "type": "constructor"
    },
    {
      "anonymous": false,
      "inputs": [
        {
          "indexed": true,
          "internalType": "address",
          "name": "oldManager",
          "type": "address"
        },
        {
          "indexed": true,
          "internalType": "address",
          "name": "newManager",
          "type": "address"
        }
      ],
      "name": "ManagerSet",
      "type": "event"
    },
    {
      "inputs": [],
      "name": "manager",
      "outputs": [
        {
          "internalType": "address",
          "name": "",
          "type": "address"
        }
      ],
      "stateMutability": "view",
      "type": "function",
      "constant": true
    },
    {
      "inputs": [
        {
          "internalType": "string",
          "name": "",
          "type": "string"
        }
      ],
      "name": "requestedDatas",
      "outputs": [
        {
          "internalType": "string",
          "name": "",
          "type": "string"
        }
      ],
      "stateMutability": "view",
      "type": "function",
      "constant": true
    },
    {
      "stateMutability": "payable",
      "type": "receive",
      "payable": true
    },
    {
      "inputs": [],
      "name": "version",
      "outputs": [
        {
          "internalType": "string",
          "name": "",
          "type": "string"
        }
      ],
      "stateMutability": "pure",
      "type": "function",
      "constant": true
    },
    {
      "inputs": [],
      "name": "name",
      "outputs": [
        {
          "internalType": "string",
          "name": "",
          "type": "string"
        }
      ],
      "stateMutability": "pure",
      "type": "function",
      "constant": true
    },
    {
      "inputs": [
        {
          "internalType": "address",
          "name": "newManager",
          "type": "address"
        }
      ],
      "name": "changeManager",
      "outputs": [],
      "stateMutability": "nonpayable",
      "type": "function"
    },
    {
      "inputs": [],
      "name": "getManager",
      "outputs": [
        {
          "internalType": "address",
          "name": "",
          "type": "address"
        }
      ],
      "stateMutability": "view",
      "type": "function",
      "constant": true
    },
    {
      "inputs": [
        {
          "internalType": "string",
          "name": "dataUid",
          "type": "string"
        },
        {
          "internalType": "string",
          "name": "ipfsHash",
          "type": "string"
        }
      ],
      "name": "addDataUidAndIpfsHash",
      "outputs": [],
      "stateMutability": "nonpayable",
      "type": "function"
    },
    {
      "inputs": [
        {
          "internalType": "string",
          "name": "dataUid",
          "type": "string"
        }
      ],
      "name": "getRequestedDataHash",
      "outputs": [
        {
          "internalType": "string",
          "name": "",
          "type": "string"
        }
      ],
      "stateMutability": "view",
      "type": "function",
      "constant": true
    },
    {
      "inputs": [
        {
          "internalType": "string",
          "name": "dataUid",
          "type": "string"
        }
      ],
      "name": "removeDataUidAndIpfsHash",
      "outputs": [],
      "stateMutability": "nonpayable",
      "type": "function"
    },
    {
      "inputs": [
        {
          "internalType": "address",
          "name": "_token",
          "type": "address"
        },
        {
          "internalType": "address",
          "name": "receiver",
          "type": "address"
        },
        {
          "internalType": "uint256",
          "name": "amount",
          "type": "uint256"
        }
      ],
      "name": "transferReward",
      "outputs": [],
      "stateMutability": "nonpayable",
      "type": "function"
    },
    {
      "inputs": [],
      "name": "withdrawETH",
      "outputs": [
        {
          "internalType": "bool",
          "name": "",
          "type": "bool"
        }
      ],
      "stateMutability": "nonpayable",
      "type": "function"
    }
  ],
  "bytecode": "0x608060405234801561001057600080fd5b50336000806101000a81548173ffffffffffffffffffffffffffffffffffffffff021916908373ffffffffffffffffffffffffffffffffffffffff160217905550611529806100606000396000f3fe6080604052600436106100a05760003560e01c8063a14f7df211610064578063a14f7df214610193578063a3fbbaae146101d0578063a5f5461b146101f9578063c513547614610222578063d50095841461024b578063e086e5ec14610276576100a7565b806306fdde03146100ac578063244c4ace146100d75780633aa3183914610100578063481c6a751461013d57806354fd4d5014610168576100a7565b366100a757005b600080fd5b3480156100b857600080fd5b506100c16102a1565b6040516100ce9190610db5565b60405180910390f35b3480156100e357600080fd5b506100fe60048036038101906100f99190610e7f565b6102de565b005b34801561010c57600080fd5b5061012760048036038101906101229190611007565b61039c565b6040516101349190610db5565b60405180910390f35b34801561014957600080fd5b50610152610452565b60405161015f919061105f565b60405180910390f35b34801561017457600080fd5b5061017d610476565b60405161018a9190610db5565b60405180910390f35b34801561019f57600080fd5b506101ba60048036038101906101b59190611007565b6104b3565b6040516101c79190610db5565b60405180910390f35b3480156101dc57600080fd5b506101f760048036038101906101f2919061107a565b610563565b005b34801561020557600080fd5b50610220600480360381019061021b9190611007565b6106ae565b005b34801561022e57600080fd5b50610249600480360381019061024491906110a7565b610769565b005b34801561025757600080fd5b5061026061082e565b60405161026d919061105f565b60405180910390f35b34801561028257600080fd5b5061028b610857565b604051610298919061113a565b60405180910390f35b60606040518060400160405280600c81526020017f47656e20436f6e74726163740000000000000000000000000000000000000000815250905090565b60008054906101000a900473ffffffffffffffffffffffffffffffffffffffff1673ffffffffffffffffffffffffffffffffffffffff163373ffffffffffffffffffffffffffffffffffffffff161461036c576040517f08c379a0000000000000000000000000000000000000000000000000000000008152600401610363906111a1565b60405180910390fd5b61039782828573ffffffffffffffffffffffffffffffffffffffff166109369092919063ffffffff16565b505050565b60018180516020810182018051848252602083016020850120818352809550505050505060009150905080546103d1906111f0565b80601f01602080910402602001604051908101604052809291908181526020018280546103fd906111f0565b801561044a5780601f1061041f5761010080835404028352916020019161044a565b820191906000526020600020905b81548152906001019060200180831161042d57829003601f168201915b505050505081565b60008054906101000a900473ffffffffffffffffffffffffffffffffffffffff1681565b60606040518060400160405280600581526020017f302e302e31000000000000000000000000000000000000000000000000000000815250905090565b60606001826040516104c5919061125d565b908152602001604051809103902080546104de906111f0565b80601f016020809104026020016040519081016040528092919081815260200182805461050a906111f0565b80156105575780601f1061052c57610100808354040283529160200191610557565b820191906000526020600020905b81548152906001019060200180831161053a57829003601f168201915b50505050509050919050565b60008054906101000a900473ffffffffffffffffffffffffffffffffffffffff1673ffffffffffffffffffffffffffffffffffffffff163373ffffffffffffffffffffffffffffffffffffffff16146105f1576040517f08c379a00000000000000000000000000000000000000000000000000000000081526004016105e8906111a1565b60405180910390fd5b8073ffffffffffffffffffffffffffffffffffffffff1660008054906101000a900473ffffffffffffffffffffffffffffffffffffffff1673ffffffffffffffffffffffffffffffffffffffff167fc64707e618a83637fc41ad1e3aa4242bd5fdd353f3d60bc0faf40db0d7d8607860405160405180910390a3806000806101000a81548173ffffffffffffffffffffffffffffffffffffffff021916908373ffffffffffffffffffffffffffffffffffffffff16021790555050565b60008054906101000a900473ffffffffffffffffffffffffffffffffffffffff1673ffffffffffffffffffffffffffffffffffffffff163373ffffffffffffffffffffffffffffffffffffffff161461073c576040517f08c379a0000000000000000000000000000000000000000000000000000000008152600401610733906111a1565b60405180910390fd5b60018160405161074c919061125d565b908152602001604051809103902060006107669190610c39565b50565b60008054906101000a900473ffffffffffffffffffffffffffffffffffffffff1673ffffffffffffffffffffffffffffffffffffffff163373ffffffffffffffffffffffffffffffffffffffff16146107f7576040517f08c379a00000000000000000000000000000000000000000000000000000000081526004016107ee906111a1565b60405180910390fd5b80600183604051610808919061125d565b90815260200160405180910390209080519060200190610829929190610c79565b505050565b60008060009054906101000a900473ffffffffffffffffffffffffffffffffffffffff16905090565b60008060009054906101000a900473ffffffffffffffffffffffffffffffffffffffff1673ffffffffffffffffffffffffffffffffffffffff163373ffffffffffffffffffffffffffffffffffffffff16146108e8576040517f08c379a00000000000000000000000000000000000000000000000000000000081526004016108df906111a1565b60405180910390fd5b3373ffffffffffffffffffffffffffffffffffffffff166108fc479081150290604051600060405180830381858888f1935050505015801561092e573d6000803e3d6000fd5b506001905090565b6109b78363a9059cbb60e01b8484604051602401610955929190611283565b604051602081830303815290604052907bffffffffffffffffffffffffffffffffffffffffffffffffffffffff19166020820180517bffffffffffffffffffffffffffffffffffffffffffffffffffffffff83818316178352505050506109bc565b505050565b6000610a1e826040518060400160405280602081526020017f5361666545524332303a206c6f772d6c6576656c2063616c6c206661696c65648152508573ffffffffffffffffffffffffffffffffffffffff16610a839092919063ffffffff16565b9050600081511115610a7e5780806020019051810190610a3e91906112d8565b610a7d576040517f08c379a0000000000000000000000000000000000000000000000000000000008152600401610a7490611377565b60405180910390fd5b5b505050565b6060610a928484600085610a9b565b90509392505050565b606082471015610ae0576040517f08c379a0000000000000000000000000000000000000000000000000000000008152600401610ad790611409565b60405180910390fd5b610ae985610baf565b610b28576040517f08c379a0000000000000000000000000000000000000000000000000000000008152600401610b1f90611475565b60405180910390fd5b6000808673ffffffffffffffffffffffffffffffffffffffff168587604051610b5191906114dc565b60006040518083038185875af1925050503d8060008114610b8e576040519150601f19603f3d011682016040523d82523d6000602084013e610b93565b606091505b5091509150610ba3828286610bd2565b92505050949350505050565b6000808273ffffffffffffffffffffffffffffffffffffffff163b119050919050565b60608315610be257829050610c32565b600083511115610bf55782518084602001fd5b816040517f08c379a0000000000000000000000000000000000000000000000000000000008152600401610c299190610db5565b60405180910390fd5b9392505050565b508054610c45906111f0565b6000825580601f10610c575750610c76565b601f016020900490600052602060002090810190610c759190610cff565b5b50565b828054610c85906111f0565b90600052602060002090601f016020900481019282610ca75760008555610cee565b82601f10610cc057805160ff1916838001178555610cee565b82800160010185558215610cee579182015b82811115610ced578251825591602001919060010190610cd2565b5b509050610cfb9190610cff565b5090565b5b80821115610d18576000816000905550600101610d00565b5090565b600081519050919050565b600082825260208201905092915050565b60005b83811015610d56578082015181840152602081019050610d3b565b83811115610d65576000848401525b50505050565b6000601f19601f8301169050919050565b6000610d8782610d1c565b610d918185610d27565b9350610da1818560208601610d38565b610daa81610d6b565b840191505092915050565b60006020820190508181036000830152610dcf8184610d7c565b905092915050565b6000604051905090565b600080fd5b600080fd5b600073ffffffffffffffffffffffffffffffffffffffff82169050919050565b6000610e1682610deb565b9050919050565b610e2681610e0b565b8114610e3157600080fd5b50565b600081359050610e4381610e1d565b92915050565b6000819050919050565b610e5c81610e49565b8114610e6757600080fd5b50565b600081359050610e7981610e53565b92915050565b600080600060608486031215610e9857610e97610de1565b5b6000610ea686828701610e34565b9350506020610eb786828701610e34565b9250506040610ec886828701610e6a565b9150509250925092565b600080fd5b600080fd5b7f4e487b7100000000000000000000000000000000000000000000000000000000600052604160045260246000fd5b610f1482610d6b565b810181811067ffffffffffffffff82111715610f3357610f32610edc565b5b80604052505050565b6000610f46610dd7565b9050610f528282610f0b565b919050565b600067ffffffffffffffff821115610f7257610f71610edc565b5b610f7b82610d6b565b9050602081019050919050565b82818337600083830152505050565b6000610faa610fa584610f57565b610f3c565b905082815260208101848484011115610fc657610fc5610ed7565b5b610fd1848285610f88565b509392505050565b600082601f830112610fee57610fed610ed2565b5b8135610ffe848260208601610f97565b91505092915050565b60006020828403121561101d5761101c610de1565b5b600082013567ffffffffffffffff81111561103b5761103a610de6565b5b61104784828501610fd9565b91505092915050565b61105981610e0b565b82525050565b60006020820190506110746000830184611050565b92915050565b6000602082840312156110905761108f610de1565b5b600061109e84828501610e34565b91505092915050565b600080604083850312156110be576110bd610de1565b5b600083013567ffffffffffffffff8111156110dc576110db610de6565b5b6110e885828601610fd9565b925050602083013567ffffffffffffffff81111561110957611108610de6565b5b61111585828601610fd9565b9150509250929050565b60008115159050919050565b6111348161111f565b82525050565b600060208201905061114f600083018461112b565b92915050565b7f43616c6c6572206973206e6f74206d616e616765720000000000000000000000600082015250565b600061118b601583610d27565b915061119682611155565b602082019050919050565b600060208201905081810360008301526111ba8161117e565b9050919050565b7f4e487b7100000000000000000000000000000000000000000000000000000000600052602260045260246000fd5b6000600282049050600182168061120857607f821691505b60208210810361121b5761121a6111c1565b5b50919050565b600081905092915050565b600061123782610d1c565b6112418185611221565b9350611251818560208601610d38565b80840191505092915050565b6000611269828461122c565b915081905092915050565b61127d81610e49565b82525050565b60006040820190506112986000830185611050565b6112a56020830184611274565b9392505050565b6112b58161111f565b81146112c057600080fd5b50565b6000815190506112d2816112ac565b92915050565b6000602082840312156112ee576112ed610de1565b5b60006112fc848285016112c3565b91505092915050565b7f5361666545524332303a204552433230206f7065726174696f6e20646964206e60008201527f6f74207375636365656400000000000000000000000000000000000000000000602082015250565b6000611361602a83610d27565b915061136c82611305565b604082019050919050565b6000602082019050818103600083015261139081611354565b9050919050565b7f416464726573733a20696e73756666696369656e742062616c616e636520666f60008201527f722063616c6c0000000000000000000000000000000000000000000000000000602082015250565b60006113f3602683610d27565b91506113fe82611397565b604082019050919050565b60006020820190508181036000830152611422816113e6565b9050919050565b7f416464726573733a2063616c6c20746f206e6f6e2d636f6e7472616374000000600082015250565b600061145f601d83610d27565b915061146a82611429565b602082019050919050565b6000602082019050818103600083015261148e81611452565b9050919050565b600081519050919050565b600081905092915050565b60006114b682611495565b6114c081856114a0565b93506114d0818560208601610d38565b80840191505092915050565b60006114e882846114ab565b91508190509291505056fea2646970667358221220c3dfa3d06dda8d0c0b9f25633652e08de38b4643de959058a32531fb8cbd605f64736f6c634300080d0033",
  "immutableReferences": {},
  "source": "pragma solidity ^0.8.13;\n\nimport \"@openzeppelin/contracts/token/ERC20/utils/SafeERC20.sol\";\n\ncontract GenContract {\n    using SafeERC20 for IERC20;\n\n    address public manager;\n    mapping(string => string) public requestedDatas;\n\n    receive() external payable {}\n\n    constructor() { manager = msg.sender; }\n\n    function version() public pure returns (string memory) {\n        return \"0.0.1\";\n    }\n\n    function name() public pure returns (string memory) {\n        return \"Gen Contract\";\n    }\n\n    // event for EVM logging\n    event ManagerSet(address indexed oldManager, address indexed newManager);\n\n    // modifier to check if caller is manager\n    modifier isManager() {\n        // If the first argument of 'require' evaluates to 'false', execution terminates and all\n        // changes to the state and to Ether balances are reverted.\n        // This used to consume all gas in old EVM versions, but not anymore.\n        // It is often a good idea to use 'require' to check if functions are called correctly.\n        // As a second argument, you can also provide an explanation about what went wrong.\n        require(msg.sender == manager, \"Caller is not manager\");\n        _;\n    }\n    \n    function changeManager(address newManager) public isManager {\n        emit ManagerSet(manager, newManager);\n        manager = newManager;\n    }\n\n    function getManager() external view returns (address) {\n        return manager;\n    }\n\n    function addDataUidAndIpfsHash(string memory dataUid, string memory ipfsHash) public isManager {\n        requestedDatas[dataUid] = ipfsHash;\n    }\n\n    function getRequestedDataHash(string memory dataUid) external view returns (string memory) {\n        return requestedDatas[dataUid];\n    }\n\n    function removeDataUidAndIpfsHash(string memory dataUid) public isManager {\n        delete requestedDatas[dataUid];\n    }\n\n    function transferReward(address _token, address receiver, uint amount) public isManager {\n        IERC20(_token).safeTransfer(receiver, amount);\n    }\n\n    function withdrawETH() public isManager returns(bool) {\n        payable(msg.sender).transfer(address(this).balance);\n        return true;\n    }\n}",
  "sourcePath": "/Users/booyoun/Documents/GitHub/gen-contracts/contracts/GenContract.sol",
  "compiler": {
    "name": "solc",
    "version": "0.8.13+commit.abaa5c0e.Emscripten.clang"
  },
  "schemaVersion": "3.4.7",
  "updatedAt": "2022-05-06T08:34:29.790Z",
  "networkType": "ethereum",
  "devdoc": {
    "kind": "dev",
    "methods": {},
    "version": 1
  },
  "userdoc": {
    "kind": "user",
    "methods": {},
    "version": 1
  }
}